:1000000042C0A5C15BC05AC059C058C057C056C0F5
:1000100055C054C053C052C051C050C04FC04EC054
:100020004DC04CC04BC04AC049C048C047C046C084
:1000300045C044C0090212000101008019090400F2
:1000400000000000000012011001FF000008C016AF
:10005000DC050401010200010E03550053004200BB
:100060006100730070001C037700770077002E009A
:10007000660069007300630068006C002E00640075
:1000800065000403090411241FBECFEFD4E0DEBFD6
:10009000CDBF11E0A0E0B1E0E8E6F1E102C00590DB
:1000A0000D92A230B107D9F721E0A2E0B1E001C082
:1000B0001D92AA34B207E1F730D854C8A1CFCF932C
:1000C000DF9360912801635067FD14C020912501E2
:1000D0008CE090E0821B9109EC01C45DDE4F8091C1
:1000E00024018D3209F44FC08091020187FD8FC039
:1000F000109228018091010184FF38C0C091000155
:10010000CF3FA1F1C93008F466C0C850C0930001C8
:100110008091180198E8892780931801C8E08091A0
:10012000020187FD9CC0209126013091270186FFA6
:1001300065C0A9E1B1E0F9018C2F94919D933196AE
:100140008150D9F78FEF8C0F90E00196280F391F5F
:1001500030932701209326016C2F89E191E0F3D0A1
:10016000CC5FCC3009F046C0C093010194E183B16B
:10017000837031F49150D9F7109229011092230124
:10018000DF91CF910895683009F0B2CF83EC80936E
:1001900018018AE58093010110920201888180761E
:1001A00009F03FC02A81109221019981911144C028
:1001B0001092220121E231E082E030932701209366
:1001C00026019F81911104C09E81981708F4892F00
:1001D000809300018DCF109200018091180198E862
:1001E000892780931801C1119ACF60E089E191E0DD
:1001F000AAD0C4E09FEF90930001B6CFD901E9E106
:10020000F1E08C2F9D9191938150E1F79BCFCE012E
:10021000A7D68F3F01F1882309F46ACF109200011D
:1002200067CFCE019AD48F3F61F6988197FD2BC09E
:1002300090E890930201CCCF953001F1963029F1EE
:10024000983071F1993081F181E09A3009F080E0C5
:1002500021E231E0B2CF8EE18093010149CF6C2FD2
:1002600089E191E001D6C82F893008F475CF8FEF6E
:1002700080930001CEE1C093010178CF2093290142
:1002800021E231E09ACF8E81D3CF9B819130C9F0AA
:10029000923079F09330E9F090E49093020191CF9D
:1002A0002BE231E081E089CF20932B0121E231E084
:1002B00084CF84E390E0909327018093260182E12C
:1002C000EBCF86E490E0909327018093260182E1B2
:1002D000E3CF211108C082E890E09093270180933A
:1002E000260184E0D9CF213051F02230A9F688E5EB
:1002F00090E090932701809326018EE0CDCF86E693
:1003000090E090932701809326018CE1C5CFE9E628
:10031000F0E0808183608083E89A0895A82FB92F48
:1003200080E090E041E050EA609530E009C02D9116
:1003300082279795879510F084279527305EC8F31C
:100340006F5FA8F30895EADF8D939D930895CF938F
:10035000CFB7CF93C395189BE9F7189B09C0189B9B
:1003600007C0189B05C0189B03C0189B01C0A1C003
:10037000DF93C0912501DD27C45DDE4F189B02C0CD
:10038000DF91EBCF2F930F931F9303B12FEF00FB60
:1003900020F94F933F9313B14FEF012700FB21F951
:1003A0003BE031C04E7F012F13B1216028C0102FD8
:1003B0004D7F2260000003B129C04B7F2460012FD4
:1003C000000013B12BC013B1477F28602AC04F7EB5
:1003D00003B120612CC04F7D13B120622FC04F7B31
:1003E00003B1206432C0422703B149934FEF0000AC
:1003F000102710FB20F913B11370C9F1297F91F276
:10040000012700FB21F903B1237F89F2315058F114
:10041000102710FB22F913B1277E79F2012700FB88
:1004200023F92F7C81F203B1102710FB24F92F79D7
:1004300071F200C013B1012700FB25F92F7359F2A7
:1004400000C003B1102710FB26F9223040F200C093
:1004500013B1012700FB27F9243028F64F772068D5
:1004600013B10000F9CF11E01CBB002717C03B50AF
:100470003195C31BD04011E01CBB0881033CE9F05F
:100480000B34D9F0209123011981110F1213EDCFF4
:10049000093641F10D3211F0013E39F700932A017E
:1004A0003F914F911F910F912F91DF91CCB3C0FDE0
:1004B00051CFCF91CFBFCF91189520912A01222300
:1004C00079F310912801112311F5343012F1309392
:1004D000280120932401109125013BE0311B30932A
:1004E000250117C00091280101308CF40AE53091F4
:1004F000010134FD10C000930101C8E1D1E00FC03B
:100500002795A8F45150A9F4220F0000F9CF4AE52D
:1005100003C042ED01C0432FC4E1D0E032E014B18A
:100520001360289A14B905B120E413E05F93012702
:1005300056E005B9279520F4515021F4220FF9CF48
:10054000012756E000003B5A05B9D0F2279528F460
:10055000515029F4220F0000F9CF012756E02795CA
:1005600005B920F4515021F4220FF9CF012756E0AC
:100570002991332305B921F60C7F10912901110F20
:10058000C651D04005B911F01093230111E01CBBF6
:10059000016014B11C7F402F4C7F5F9100C000C0F0
:1005A00005B914B945B97CCF582F48E080E057FD14
:1005B00018C02B98550F880F1C998F5F2D9A36B550
:1005C0002091470196B5931B9217E0F32D9836B50D
:1005D0002091470196B5931B9217E0F3415039F7EC
:1005E00008952B9AE7CF8EBD0DB407FEFDCF8EB5D3
:1005F0000895DC01CB0121E1B695A79597958795E4
:100600002A95D1F7209146012817D9F08093460109
:10061000E0914301F09144018DE40995E09143019B
:10062000F091440180E00995E0914301F09144018B
:10063000809146010995E0914301F091440180E0E9
:1006400009940895809145018CBD809142018DBD32
:1006500008958823A1F08830C8F524ED32E0309366
:100660004401209343018430E9F000F18630B9F071
:1006700028F1873099F483E080934701089583EF50
:1006800092E090934401809343011092420181E0F3
:100690008093470181E580934501089580EC809324
:1006A0004701089588E1809347010895823051F011
:1006B0008330A1F780E38093470108958CE0809315
:1006C0004701089580E680934701089523EF32E0C3
:1006D00030934401209343011092420191E09093A2
:1006E0004701893039F088F4883041F483E58093FC
:1006F0004501089582E580934501089582E5809340
:10070000450181E08093420108958B3019F28C30CD
:10071000A9F79093420181E580934501089526B59C
:100720009091470186B5821B8917E0F3089584B143
:100730008C6284B92A982D9826B59091470186B588
:10074000821B8917E0F32A9A26B59091470186B556
:10075000821B8917E0F32A9880914301909144010C
:10076000835F924019F010924601089580914501EF
:100770008CBD809142018DBD10924601089584B1D7
:10078000837D84B985B1837D85B91CBC0895CF93E1
:10079000DF93C0E2E0914301F09144018CEA0995B6
:1007A000E0914301F091440183E50995E091430113
:1007B000F091440180E00995D82FE0914301F09138
:1007C000440180E00995D33561F11CBC26B59091B8
:1007D000470186B5821B8917E0F32A9A26B59091C6
:1007E000470186B5821B8917E0F32A9826B59091B8
:1007F000470186B5821B8917E0F3809143019091F0
:100800004401835F924031F0C15021F681E0DF91D5
:10081000CF910895809145018CBD809142018DBD9D
:10082000F3CF80E0DF91CF910895CF92DF92EF92E6
:10083000FF926B017C01DDDE8C2D880F880F880F05
:100840008870E0914301F091440180620995D701DD
:10085000C60129E0B695A795979587952A95D1F772
:10086000E0914301F09144010995D701C601B69585
:10087000A79597958795E0914301F09144010995DB
:10088000E0914301F091440180E0FF90EF90DF9010
:10089000CF900994CF92DF92EF92FF92CF93DF93A4
:1008A0006B017C01C42FD22FA4DE8C2D880F880F02
:1008B000880F8870E0914301F091440180640995AC
:1008C000D701C60129E0B695A795979587952A95F2
:1008D000D1F7E0914301F09144010995D701C60198
:1008E000B695A79597958795E0914301F0914401BE
:1008F0000995E0914301F09144018C2F0995DD2386
:10090000D1F0CF37B1F0D6B5CEE1C701B6018DDF5A
:100910008F3789F486B58D1B8D33B8F3D6B5C150AA
:10092000A1F781E0DF91CF91FF90EF90DF90CF9022
:1009300008958FE09DD080E0DF91CF91FF90EF9000
:10094000DF90CF900895CF92DF92EF92FF92CF93F6
:10095000DF936B017C01C42F4CDEE0914301F091E9
:1009600044018CE40995D701C60129E0B695A79505
:10097000979587952A95D1F7E0914301F09144012D
:100980000995D701C601B695A79597958795E091EA
:100990004301F09144010995E0914301F091440134
:1009A00080E00995CF3FF1F0D6B5CEE1C701B601A1
:1009B0003CDF8F3F79F486B58D1B8D33B8F3D6B508
:1009C000C150A1F781E0DF91CF91FF90EF90DF90D0
:1009D000CF90089580E0DF91CF91FF90EF90DF906E
:1009E000CF9008958FE044D080E0EDCFCF93DF9398
:1009F000EC01E0914301F091440180EA0995E09116
:100A00004301F09144018D2F0995E0914301F0914C
:100A100044018C2F0995E0914301F091440180E05D
:100A2000DF91CF9109941F93CF93DF93D82F192F84
:100A3000C62FE0914301F091440180EC0995E091CB
:100A40004301F0914401812F0995E0914301F09118
:100A500044018D2F0995E0914301F09144018C2FC1
:100A600009958EE105D080E0DF91CF911F91089527
:100A7000882349F030E026B596B5921B9C33E0F30D
:100A80003F5F8313F8CF0895259A23982B9A50E25D
:100A900017D05A95E9F70895AC0188E605D0842F60
:100AA00003D089E601D0852F0FD028E030E0382729
:100AB00080FB869506D02A95D1F730FB02D000D076
:100AC000689423982B9A16F02B98239AE09148016A
:100AD000F09149013197F0F72D9AE3B1E3FBE091F2
:100AE0004801F09149013197F0F72D98089520ECD5
:100AF000E7DF46F42A95E1F780E02AE1E5DF2A9571
:100B0000E9F7DECF28E030E0DBDF869587F938278C
:100B10002A95D1F7D5DF27F9322772F3D1DFD0CF6D
:100B2000DB01742FB9DF84E2BFDFE1DF8D937A95BB
:100B3000D1F70895DB01742FAFDF83EFB5DF8DE1CF
:100B4000B3DF84E6B1DF8D91AFDF82E7ADDFCFDFCA
:100B50008078D9F77A9589F70895CF93DF93EC01E0
:100B60008981813009F495C0823009F49BC08330BB
:100B700009F450C0843049F1873009F46DC08530E4
:100B800009F4FAC0863009F491C0883009F4D1C064
:100B9000893009F4BDC08A3009F40CC18B3009F4E6
:100BA00034C18C3009F442C18D3009F454C18E3007
:100BB00009F456C18F3009F4E4C0803109F401C151
:100BC0008F3709F417C180E01CC080910D0181119D
:100BD0000EC08A819B81092E000CAA0BBB0B80934F
:100BE000090190930A01A0930B01B0930C018E812F
:100BF0009F81909308018093070182E080930F0109
:100C00008FEF20E131E03093270120932601DF911F
:100C1000CF910895E0914301F09144018A810995B3
:100C200080931001E0914301F09144018B8109957B
:100C300080931101E0914301F09144018C81099569
:100C400080931201E0914301F09144018D81099557
:100C50008093130184E0D5CF80910D0181110EC0E6
:100C60008A819B81092E000CAA0BBB0B8093090182
:100C700090930A01A0930B01B0930C018E819F8188
:100C8000909308018093070183E080930F018FEF19
:100C9000B8CF80910E01DDDC10920D01419847DD47
:100CA00080E0AFCF6CDD419A80E0ABCF80910D0149
:100CB00081110EC08A819B81092E000CAA0BBB0BEF
:100CC0008093090190930A01A0930B01B0930C014A
:100CD0003C812D81822F8F708093040140E1249FFD
:100CE000C001112488279F70830F911D90930601E6
:100CF0008093050120FD809303018E819F81909355
:100D000008018093070181E080930F018FEF79CF75
:100D100081E080930D018A819B81AC81BD818093AC
:100D2000090190930A01A0930B01B0930C0180E09C
:100D300068CF80910D0181110EC08A819B81092E9F
:100D4000000CAA0BBB0B8093090190930A01A0939E
:100D50000B01B0930C011092060110920501109244
:100D600004018E819F81909308018093070184E0A4
:100D700080930F018FEF45CF0ADD8093100181E052
:100D800040CF8A819B81092E000CAA0BBB0B80935C
:100D9000090190930A01A0930B01B0930C018E817D
:100DA0009F81909308018093070185E080930F0154
:100DB0008FEF27CF8A8180930E011092100181E07E
:100DC00020CF8A819B81092E000CAA0BBB0B80933C
:100DD000090190930A01A0930B01B0930C018E813D
:100DE0009F81909308018093070186E080930F0113
:100DF0008FEF07CF81E080931001109211011092C4
:100E000012011092130184E0FCCE8A819B819093A1
:100E10004901809348012A9A229A83E029DE2A9880
:100E2000419880E125DE30DE80E0EBCE80EC3CDED8
:100E300080E03ADE8AE01CDE2A9A85E019DE2A98F4
:100E400085E016DE84B1837D84B985B1837D85B963
:100E5000419A80E0D6CE4BDE8093100181E0D1CE66
:100E60008A8122DE80E0CDCEFF920F931F93CF9335
:100E7000DF93582F792FF62E20910F013EEF320F7E
:100E8000323050F0253009F44EC08FEFDF91CF9112
:100E90001F910F91FF9008956623A9F18091090198
:100EA00090910A01A0910B01B0910C01C52FD72F91
:100EB0003FEF360F8E01030F111D1BC097DD888396
:100EC0008091090190910A01A0910B01B0910C0150
:100ED0000196A11DB11D8093090190930A01A09371
:100EE0000B01B0930C01C017D10751F020910F01F5
:100EF0002196223019F7BC01CD0197DC8883E0CF21
:100F000087E08F1548F010920F018F2DDF91CF9160
:100F10001F910F91FF9008958F2DDF91CF911F9119
:100F20000F91FF900895462F682F809109019091AD
:100F30000A01F6DD8091090190910A01A0910B014F
:100F4000B0910C018F0D911DA11DB11D8093090160
:100F500090930A01A0930B01B0930C018F2D96CFB3
:100F6000FF920F931F93CF93DF93382F792F162F74
:100F700020910F01213071F0243061F0263009F406
:100F80008EC0FF24FA948F2DDF91CF911F910F9186
:100F9000FF900895112309F4AEC08091090190914A
:100FA0000A01A0910B01B0910C01C32FD72F115052
:100FB000AE01410F511D8A01F12C4DC02091050158
:100FC00030910601232B09F04FC021E04881BC017C
:100FD000CD0160DC80910701909108010197909309
:100FE000080180930701892BE1F410920F01809191
:100FF000040181FF36C08091030190E0209105013A
:10100000309106018217930761F160910901709197
:101010000A0180910B0190910C01488194DCFF241E
:10102000F3948091090190910A01A0910B01B09174
:101030000C010196A11DB11D8093090190930A0135
:10104000A0930B01B0930C010C171D0709F49BCF63
:1010500020910F012196213009F4B0CF6881E3DCA3
:10106000B9CFFF24F394DDCF20E04881BC01CD014E
:1010700011DC809103018150809303018111AACF7B
:101080006091090170910A0180910B0190910C010E
:10109000488159DC80910501809303019BCF462F45
:1010A000682F8091090190910A0144DD8091090126
:1010B00090910A01A0910B01B0910C01810F911D3B
:1010C000A11DB11D8093090190930A01A0930B010A
:1010D000B0930C018091070190910801811B910947
:1010E0009093080180930701892B29F410920F0136
:1010F000FF24F39448CFF12C46CF98B19C7F21E098
:10110000811120E0922B611104C082E0982B98B9E4
:10111000089580E0982B98B9089593E097B998B90D
:101120001BB815B81AB814B888B18C7F816088B91B
:1011300085B18C7F85B984B1836084B92FE739EAA2
:1011400083E0215030408040E1F700C0000014B837
:1011500088B18C7F826088B995BDD9D87894AFD793
:08116000AED7FDCFF894FFCFDC
:02116800FF5A2C
:00000001FF
